:020000040000FA
:060000008A110A12052816
:100008000900422083160313871307138712071268
:10001800831203133D20D030F2000730F3002F2065
:100028002A20D030F2000730F3002F205F20D03094
:10003800F2000730F3002F206420D030F2000730A0
:10004800F3002F200C282828630028288713071777
:10005800871207160800F30A0430F100A530F000F3
:10006800F00B3428F10B3228F20B3028F30B302830
:1000780008008717071387160712080070308316C1
:1000880003138F048F308F050F178F160F169F13CA
:10009800831203131F108316031788018901831223
:1000A80003178813871383120313850186018701B9
:1000B80088018901080087130717871607120800A7
:0A00C80087170713871207160800B8
:04400E00D42FFF3F6D
:00000001FF
