:020000040000FA
:060000008A110A12052816
:100008000900222083160313881007308312031374
:10001800A0003F202208A300003C031815288814DC
:100028001628881009281828630018280530F000B9
:10003800F00B1C280000F50B1A28080070308316F6
:1000480003138F048F308F050F178F160F169F130A
:10005800831203131F108316031788018901831263
:1000680003178813871383120313850186018701F9
:10007800880189010800831603139F138316031749
:100088008801890183120313200AA100031483162F
:100098000317880D890D83120313A10B4B289F1397
:1000A8001F171F119F111F129F1220181F15A0182C
:1000B8009F1520191F16A0199F161F140230F5004E
:1000C8001A209F1400009F1867281F108316031713
:1000D80088018901831203131E08A20083160313E3
:0800E8009F13831203130800AB
:04400E00D42FFF3F6D
:00000001FF
